{
  "_format": "hh-sol-artifact-1",
  "contractName": "ICOMarketplace",
  "sourceName": "contracts/PreSale.sol",
  "abi": [
    {
      "inputs": [],
      "stateMutability": "nonpayable",
      "type": "constructor"
    },
    {
      "anonymous": false,
      "inputs": [
        {
          "indexed": true,
          "internalType": "address",
          "name": "token",
          "type": "address"
        },
        {
          "indexed": false,
          "internalType": "uint256",
          "name": "price",
          "type": "uint256"
        },
        {
          "indexed": true,
          "internalType": "address",
          "name": "creator",
          "type": "address"
        },
        {
          "indexed": false,
          "internalType": "string",
          "name": "name",
          "type": "string"
        },
        {
          "indexed": false,
          "internalType": "string",
          "name": "symbol",
          "type": "string"
        }
      ],
      "name": "TokenAdded",
      "type": "event"
    },
    {
      "anonymous": false,
      "inputs": [
        {
          "indexed": true,
          "internalType": "address",
          "name": "token",
          "type": "address"
        },
        {
          "indexed": true,
          "internalType": "address",
          "name": "from",
          "type": "address"
        },
        {
          "indexed": false,
          "internalType": "uint256",
          "name": "amount",
          "type": "uint256"
        }
      ],
      "name": "TokenRecieved",
      "type": "event"
    },
    {
      "anonymous": false,
      "inputs": [
        {
          "indexed": true,
          "internalType": "address",
          "name": "token",
          "type": "address"
        },
        {
          "indexed": true,
          "internalType": "address",
          "name": "to",
          "type": "address"
        },
        {
          "indexed": false,
          "internalType": "uint256",
          "name": "amount",
          "type": "uint256"
        }
      ],
      "name": "TokenTransferred",
      "type": "event"
    },
    {
      "anonymous": false,
      "inputs": [
        {
          "indexed": true,
          "internalType": "address",
          "name": "token",
          "type": "address"
        },
        {
          "indexed": true,
          "internalType": "address",
          "name": "to",
          "type": "address"
        },
        {
          "indexed": false,
          "internalType": "uint256",
          "name": "amount",
          "type": "uint256"
        }
      ],
      "name": "TokenWithdraw",
      "type": "event"
    },
    {
      "inputs": [
        {
          "internalType": "uint256",
          "name": "",
          "type": "uint256"
        }
      ],
      "name": "allSupportedTokens",
      "outputs": [
        {
          "internalType": "address",
          "name": "",
          "type": "address"
        }
      ],
      "stateMutability": "view",
      "type": "function"
    },
    {
      "inputs": [
        {
          "internalType": "address",
          "name": "_token",
          "type": "address"
        },
        {
          "internalType": "uint256",
          "name": "_amount",
          "type": "uint256"
        }
      ],
      "name": "buyToken",
      "outputs": [],
      "stateMutability": "payable",
      "type": "function"
    },
    {
      "inputs": [
        {
          "internalType": "address",
          "name": "_token",
          "type": "address"
        },
        {
          "internalType": "uint256",
          "name": "_price",
          "type": "uint256"
        }
      ],
      "name": "createICOSale",
      "outputs": [],
      "stateMutability": "nonpayable",
      "type": "function"
    },
    {
      "inputs": [],
      "name": "getAllTokens",
      "outputs": [
        {
          "components": [
            {
              "internalType": "address",
              "name": "token",
              "type": "address"
            },
            {
              "internalType": "bool",
              "name": "supported",
              "type": "bool"
            },
            {
              "internalType": "uint256",
              "name": "price",
              "type": "uint256"
            },
            {
              "internalType": "address",
              "name": "creator",
              "type": "address"
            },
            {
              "internalType": "string",
              "name": "name",
              "type": "string"
            },
            {
              "internalType": "string",
              "name": "symbol",
              "type": "string"
            }
          ],
          "internalType": "struct ICOMarketplace.TokenDetails[]",
          "name": "",
          "type": "tuple[]"
        }
      ],
      "stateMutability": "view",
      "type": "function"
    },
    {
      "inputs": [
        {
          "internalType": "address",
          "name": "_token",
          "type": "address"
        }
      ],
      "name": "getBalance",
      "outputs": [
        {
          "internalType": "uint256",
          "name": "",
          "type": "uint256"
        }
      ],
      "stateMutability": "view",
      "type": "function"
    },
    {
      "inputs": [],
      "name": "getSupportedTokens",
      "outputs": [
        {
          "internalType": "address[]",
          "name": "",
          "type": "address[]"
        }
      ],
      "stateMutability": "view",
      "type": "function"
    },
    {
      "inputs": [
        {
          "internalType": "address",
          "name": "_creator",
          "type": "address"
        }
      ],
      "name": "getTokenCreatedBy",
      "outputs": [
        {
          "components": [
            {
              "internalType": "address",
              "name": "token",
              "type": "address"
            },
            {
              "internalType": "bool",
              "name": "supported",
              "type": "bool"
            },
            {
              "internalType": "uint256",
              "name": "price",
              "type": "uint256"
            },
            {
              "internalType": "address",
              "name": "creator",
              "type": "address"
            },
            {
              "internalType": "string",
              "name": "name",
              "type": "string"
            },
            {
              "internalType": "string",
              "name": "symbol",
              "type": "string"
            }
          ],
          "internalType": "struct ICOMarketplace.TokenDetails[]",
          "name": "",
          "type": "tuple[]"
        }
      ],
      "stateMutability": "view",
      "type": "function"
    },
    {
      "inputs": [
        {
          "internalType": "address",
          "name": "_token",
          "type": "address"
        }
      ],
      "name": "getTokenDetails",
      "outputs": [
        {
          "components": [
            {
              "internalType": "address",
              "name": "token",
              "type": "address"
            },
            {
              "internalType": "bool",
              "name": "supported",
              "type": "bool"
            },
            {
              "internalType": "uint256",
              "name": "price",
              "type": "uint256"
            },
            {
              "internalType": "address",
              "name": "creator",
              "type": "address"
            },
            {
              "internalType": "string",
              "name": "name",
              "type": "string"
            },
            {
              "internalType": "string",
              "name": "symbol",
              "type": "string"
            }
          ],
          "internalType": "struct ICOMarketplace.TokenDetails",
          "name": "",
          "type": "tuple"
        }
      ],
      "stateMutability": "view",
      "type": "function"
    },
    {
      "inputs": [],
      "name": "owner",
      "outputs": [
        {
          "internalType": "address",
          "name": "",
          "type": "address"
        }
      ],
      "stateMutability": "view",
      "type": "function"
    },
    {
      "inputs": [
        {
          "internalType": "address",
          "name": "",
          "type": "address"
        }
      ],
      "name": "tokenDetails",
      "outputs": [
        {
          "internalType": "address",
          "name": "token",
          "type": "address"
        },
        {
          "internalType": "bool",
          "name": "supported",
          "type": "bool"
        },
        {
          "internalType": "uint256",
          "name": "price",
          "type": "uint256"
        },
        {
          "internalType": "address",
          "name": "creator",
          "type": "address"
        },
        {
          "internalType": "string",
          "name": "name",
          "type": "string"
        },
        {
          "internalType": "string",
          "name": "symbol",
          "type": "string"
        }
      ],
      "stateMutability": "view",
      "type": "function"
    },
    {
      "inputs": [
        {
          "internalType": "address",
          "name": "_token",
          "type": "address"
        },
        {
          "internalType": "uint256",
          "name": "_amount",
          "type": "uint256"
        }
      ],
      "name": "withdrawToken",
      "outputs": [],
      "stateMutability": "nonpayable",
      "type": "function"
    },
    {
      "stateMutability": "payable",
      "type": "receive"
    }
  ],
  "bytecode": "0x608060405234801561001057600080fd5b5033600260006101000a81548173ffffffffffffffffffffffffffffffffffffffff021916908373ffffffffffffffffffffffffffffffffffffffff160217905550613054806100616000396000f3fe6080604052600436106100a05760003560e01c80638da5cb5b116100645780638da5cb5b146101cf5780639e281a98146101fa578063d3c7c2c714610223578063dd4be6831461024e578063eb18c0e514610290578063f8b2cb4f146102cd576100e0565b80632a074008146100e55780632a5c792a1461010e5780633a80f21d1461013957806368f8fc101461017657806388aa8bee14610192576100e0565b366100e0576040517f08c379a00000000000000000000000000000000000000000000000000000000081526004016100d790611f1b565b60405180910390fd5b600080fd5b3480156100f157600080fd5b5061010c60048036038101906101079190611fe3565b61030a565b005b34801561011a57600080fd5b50610123610653565b604051610130919061223e565b60405180910390f35b34801561014557600080fd5b50610160600480360381019061015b9190612260565b610978565b60405161016d919061229c565b60405180910390f35b610190600480360381019061018b9190611fe3565b6109b7565b005b34801561019e57600080fd5b506101b960048036038101906101b491906122b7565b610f19565b6040516101c69190612374565b60405180910390f35b3480156101db57600080fd5b506101e46111f4565b6040516101f1919061229c565b60405180910390f35b34801561020657600080fd5b50610221600480360381019061021c9190611fe3565b61121a565b005b34801561022f57600080fd5b506102386115b4565b6040516102459190612445565b60405180910390f35b34801561025a57600080fd5b50610275600480360381019061027091906122b7565b611642565b604051610287969594939291906124be565b60405180910390f35b34801561029c57600080fd5b506102b760048036038101906102b291906122b7565b6117db565b6040516102c4919061223e565b60405180910390f35b3480156102d957600080fd5b506102f460048036038101906102ef91906122b7565b611ce6565b604051610301919061252d565b60405180910390f35b600082905060008173ffffffffffffffffffffffffffffffffffffffff166306fdde036040518163ffffffff1660e01b8152600401600060405180830381865afa15801561035c573d6000803e3d6000fd5b505050506040513d6000823e3d601f19601f82011682018060405250810190610385919061266e565b905060008273ffffffffffffffffffffffffffffffffffffffff166395d89b416040518163ffffffff1660e01b8152600401600060405180830381865afa1580156103d4573d6000803e3d6000fd5b505050506040513d6000823e3d601f19601f820116820180604052508101906103fd919061266e565b90506040518060c001604052808673ffffffffffffffffffffffffffffffffffffffff1681526020016001151581526020018581526020013373ffffffffffffffffffffffffffffffffffffffff168152602001838152602001828152506000808773ffffffffffffffffffffffffffffffffffffffff1673ffffffffffffffffffffffffffffffffffffffff16815260200190815260200160002060008201518160000160006101000a81548173ffffffffffffffffffffffffffffffffffffffff021916908373ffffffffffffffffffffffffffffffffffffffff16021790555060208201518160000160146101000a81548160ff0219169083151502179055506040820151816001015560608201518160020160006101000a81548173ffffffffffffffffffffffffffffffffffffffff021916908373ffffffffffffffffffffffffffffffffffffffff160217905550608082015181600301908161056691906128c3565b5060a082015181600401908161057c91906128c3565b509050506001859080600181540180825580915050600190039060005260206000200160009091909190916101000a81548173ffffffffffffffffffffffffffffffffffffffff021916908373ffffffffffffffffffffffffffffffffffffffff1602179055503373ffffffffffffffffffffffffffffffffffffffff168573ffffffffffffffffffffffffffffffffffffffff167f3a9a79cd15a41f1359a9a9233af1f78982f570cfef886de45a01769c231b4c8486858560405161064493929190612995565b60405180910390a35050505050565b60606000600180549050905060008167ffffffffffffffff81111561067b5761067a612552565b5b6040519080825280602002602001820160405280156106b457816020015b6106a1611e34565b8152602001906001900390816106995790505b50905060005b8281101561096f57600080600183815481106106d9576106d86129da565b5b9060005260206000200160009054906101000a900473ffffffffffffffffffffffffffffffffffffffff1673ffffffffffffffffffffffffffffffffffffffff1673ffffffffffffffffffffffffffffffffffffffff1681526020019081526020016000206040518060c00160405290816000820160009054906101000a900473ffffffffffffffffffffffffffffffffffffffff1673ffffffffffffffffffffffffffffffffffffffff1673ffffffffffffffffffffffffffffffffffffffff1681526020016000820160149054906101000a900460ff16151515158152602001600182015481526020016002820160009054906101000a900473ffffffffffffffffffffffffffffffffffffffff1673ffffffffffffffffffffffffffffffffffffffff1673ffffffffffffffffffffffffffffffffffffffff16815260200160038201805461082a906126e6565b80601f0160208091040260200160405190810160405280929190818152602001828054610856906126e6565b80156108a35780601f10610878576101008083540402835291602001916108a3565b820191906000526020600020905b81548152906001019060200180831161088657829003601f168201915b505050505081526020016004820180546108bc906126e6565b80601f01602080910402602001604051908101604052809291908181526020018280546108e8906126e6565b80156109355780601f1061090a57610100808354040283529160200191610935565b820191906000526020600020905b81548152906001019060200180831161091857829003601f168201915b505050505081525050828281518110610951576109506129da565b5b6020026020010181905250808061096790612a38565b9150506106ba565b50809250505090565b6001818154811061098857600080fd5b906000526020600020016000915054906101000a900473ffffffffffffffffffffffffffffffffffffffff1681565b81600115156000808373ffffffffffffffffffffffffffffffffffffffff1673ffffffffffffffffffffffffffffffffffffffff16815260200190815260200160002060000160149054906101000a900460ff16151514610a4d576040517f08c379a0000000000000000000000000000000000000000000000000000000008152600401610a4490612acc565b60405180910390fd5b60008211610a90576040517f08c379a0000000000000000000000000000000000000000000000000000000008152600401610a8790612b38565b60405180910390fd5b60008060008573ffffffffffffffffffffffffffffffffffffffff1673ffffffffffffffffffffffffffffffffffffffff1681526020019081526020016000206040518060c00160405290816000820160009054906101000a900473ffffffffffffffffffffffffffffffffffffffff1673ffffffffffffffffffffffffffffffffffffffff1673ffffffffffffffffffffffffffffffffffffffff1681526020016000820160149054906101000a900460ff16151515158152602001600182015481526020016002820160009054906101000a900473ffffffffffffffffffffffffffffffffffffffff1673ffffffffffffffffffffffffffffffffffffffff1673ffffffffffffffffffffffffffffffffffffffff168152602001600382018054610bbc906126e6565b80601f0160208091040260200160405190810160405280929190818152602001828054610be8906126e6565b8015610c355780601f10610c0a57610100808354040283529160200191610c35565b820191906000526020600020905b815481529060010190602001808311610c1857829003601f168201915b50505050508152602001600482018054610c4e906126e6565b80601f0160208091040260200160405190810160405280929190818152602001828054610c7a906126e6565b8015610cc75780601f10610c9c57610100808354040283529160200191610cc7565b820191906000526020600020905b815481529060010190602001808311610caa57829003601f168201915b50505050508152505090506000610ce2826040015185611dfd565b9050803414610d26576040517f08c379a0000000000000000000000000000000000000000000000000000000008152600401610d1d90612ba4565b60405180910390fd5b6000826060015173ffffffffffffffffffffffffffffffffffffffff1634604051610d5090612bf5565b60006040518083038185875af1925050503d8060008114610d8d576040519150601f19603f3d011682016040523d82523d6000602084013e610d92565b606091505b5050905080610dd6576040517f08c379a0000000000000000000000000000000000000000000000000000000008152600401610dcd90612c7c565b60405180910390fd5b60008690508073ffffffffffffffffffffffffffffffffffffffff1663a9059cbb33670de0b6b3a764000089610e0c9190612c9c565b6040518363ffffffff1660e01b8152600401610e29929190612cde565b6020604051808303816000875af1158015610e48573d6000803e3d6000fd5b505050506040513d601f19601f82011682018060405250810190610e6c9190612d33565b610eab576040517f08c379a0000000000000000000000000000000000000000000000000000000008152600401610ea290612dac565b60405180910390fd5b3373ffffffffffffffffffffffffffffffffffffffff168773ffffffffffffffffffffffffffffffffffffffff167f9c8515990fd8c61431c4ac8db9b81475f90c292a1dda77731e56c22e64fc764388604051610f08919061252d565b60405180910390a350505050505050565b610f21611e34565b6000808373ffffffffffffffffffffffffffffffffffffffff1673ffffffffffffffffffffffffffffffffffffffff16815260200190815260200160002060000160149054906101000a900460ff16610faf576040517f08c379a0000000000000000000000000000000000000000000000000000000008152600401610fa690612e18565b60405180910390fd5b6000808373ffffffffffffffffffffffffffffffffffffffff1673ffffffffffffffffffffffffffffffffffffffff1681526020019081526020016000206040518060c00160405290816000820160009054906101000a900473ffffffffffffffffffffffffffffffffffffffff1673ffffffffffffffffffffffffffffffffffffffff1673ffffffffffffffffffffffffffffffffffffffff1681526020016000820160149054906101000a900460ff16151515158152602001600182015481526020016002820160009054906101000a900473ffffffffffffffffffffffffffffffffffffffff1673ffffffffffffffffffffffffffffffffffffffff1673ffffffffffffffffffffffffffffffffffffffff1681526020016003820180546110d9906126e6565b80601f0160208091040260200160405190810160405280929190818152602001828054611105906126e6565b80156111525780601f1061112757610100808354040283529160200191611152565b820191906000526020600020905b81548152906001019060200180831161113557829003601f168201915b5050505050815260200160048201805461116b906126e6565b80601f0160208091040260200160405190810160405280929190818152602001828054611197906126e6565b80156111e45780601f106111b9576101008083540402835291602001916111e4565b820191906000526020600020905b8154815290600101906020018083116111c757829003601f168201915b5050505050815250509050919050565b600260009054906101000a900473ffffffffffffffffffffffffffffffffffffffff1681565b816000808273ffffffffffffffffffffffffffffffffffffffff1673ffffffffffffffffffffffffffffffffffffffff16815260200190815260200160002060020160009054906101000a900473ffffffffffffffffffffffffffffffffffffffff1673ffffffffffffffffffffffffffffffffffffffff163373ffffffffffffffffffffffffffffffffffffffff16146112ea576040517f08c379a00000000000000000000000000000000000000000000000000000000081526004016112e190612e84565b60405180910390fd5b82600115156000808373ffffffffffffffffffffffffffffffffffffffff1673ffffffffffffffffffffffffffffffffffffffff16815260200190815260200160002060000160149054906101000a900460ff16151514611380576040517f08c379a000000000000000000000000000000000000000000000000000000000815260040161137790612acc565b60405180910390fd5b600083116113c3576040517f08c379a00000000000000000000000000000000000000000000000000000000081526004016113ba90612ef0565b60405180910390fd5b600084905060008173ffffffffffffffffffffffffffffffffffffffff166370a08231306040518263ffffffff1660e01b8152600401611403919061229c565b602060405180830381865afa158015611420573d6000803e3d6000fd5b505050506040513d601f19601f820116820180604052508101906114449190612f25565b9050600081101561148a576040517f08c379a000000000000000000000000000000000000000000000000000000000815260040161148190612f9e565b60405180910390fd5b8173ffffffffffffffffffffffffffffffffffffffff1663a9059cbb33876040518363ffffffff1660e01b81526004016114c5929190612cde565b6020604051808303816000875af11580156114e4573d6000803e3d6000fd5b505050506040513d601f19601f820116820180604052508101906115089190612d33565b611547576040517f08c379a000000000000000000000000000000000000000000000000000000000815260040161153e90612dac565b60405180910390fd5b3373ffffffffffffffffffffffffffffffffffffffff168673ffffffffffffffffffffffffffffffffffffffff167f7b2929a0129e91c002be982e70bea0ff69b1dda1722507dc5b60490b134a985b876040516115a4919061252d565b60405180910390a3505050505050565b6060600180548060200260200160405190810160405280929190818152602001828054801561163857602002820191906000526020600020905b8160009054906101000a900473ffffffffffffffffffffffffffffffffffffffff1673ffffffffffffffffffffffffffffffffffffffff16815260200190600101908083116115ee575b5050505050905090565b60006020528060005260406000206000915090508060000160009054906101000a900473ffffffffffffffffffffffffffffffffffffffff16908060000160149054906101000a900460ff16908060010154908060020160009054906101000a900473ffffffffffffffffffffffffffffffffffffffff16908060030180546116ca906126e6565b80601f01602080910402602001604051908101604052809291908181526020018280546116f6906126e6565b80156117435780601f1061171857610100808354040283529160200191611743565b820191906000526020600020905b81548152906001019060200180831161172657829003601f168201915b505050505090806004018054611758906126e6565b80601f0160208091040260200160405190810160405280929190818152602001828054611784906126e6565b80156117d15780601f106117a6576101008083540402835291602001916117d1565b820191906000526020600020905b8154815290600101906020018083116117b457829003601f168201915b5050505050905086565b60606000805b6001805490508110156118e2578373ffffffffffffffffffffffffffffffffffffffff166000806001848154811061181c5761181b6129da565b5b9060005260206000200160009054906101000a900473ffffffffffffffffffffffffffffffffffffffff1673ffffffffffffffffffffffffffffffffffffffff1673ffffffffffffffffffffffffffffffffffffffff16815260200190815260200160002060020160009054906101000a900473ffffffffffffffffffffffffffffffffffffffff1673ffffffffffffffffffffffffffffffffffffffff16036118cf5781806118cb90612a38565b9250505b80806118da90612a38565b9150506117e1565b5060008167ffffffffffffffff8111156118ff576118fe612552565b5b60405190808252806020026020018201604052801561193857816020015b611925611e34565b81526020019060019003908161191d5790505b5090506000805b600180549050811015611cda578573ffffffffffffffffffffffffffffffffffffffff166000806001848154811061197a576119796129da565b5b9060005260206000200160009054906101000a900473ffffffffffffffffffffffffffffffffffffffff1673ffffffffffffffffffffffffffffffffffffffff1673ffffffffffffffffffffffffffffffffffffffff16815260200190815260200160002060020160009054906101000a900473ffffffffffffffffffffffffffffffffffffffff1673ffffffffffffffffffffffffffffffffffffffff1603611cc75760008060018381548110611a3557611a346129da565b5b9060005260206000200160009054906101000a900473ffffffffffffffffffffffffffffffffffffffff1673ffffffffffffffffffffffffffffffffffffffff1673ffffffffffffffffffffffffffffffffffffffff1681526020019081526020016000206040518060c00160405290816000820160009054906101000a900473ffffffffffffffffffffffffffffffffffffffff1673ffffffffffffffffffffffffffffffffffffffff1673ffffffffffffffffffffffffffffffffffffffff1681526020016000820160149054906101000a900460ff16151515158152602001600182015481526020016002820160009054906101000a900473ffffffffffffffffffffffffffffffffffffffff1673ffffffffffffffffffffffffffffffffffffffff1673ffffffffffffffffffffffffffffffffffffffff168152602001600382018054611b86906126e6565b80601f0160208091040260200160405190810160405280929190818152602001828054611bb2906126e6565b8015611bff5780601f10611bd457610100808354040283529160200191611bff565b820191906000526020600020905b815481529060010190602001808311611be257829003601f168201915b50505050508152602001600482018054611c18906126e6565b80601f0160208091040260200160405190810160405280929190818152602001828054611c44906126e6565b8015611c915780601f10611c6657610100808354040283529160200191611c91565b820191906000526020600020905b815481529060010190602001808311611c7457829003601f168201915b505050505081525050838381518110611cad57611cac6129da565b5b60200260200101819052508180611cc390612a38565b9250505b8080611cd290612a38565b91505061193f565b50819350505050919050565b60008060008373ffffffffffffffffffffffffffffffffffffffff1673ffffffffffffffffffffffffffffffffffffffff16815260200190815260200160002060000160149054906101000a900460ff16611d76576040517f08c379a0000000000000000000000000000000000000000000000000000000008152600401611d6d90612e18565b60405180910390fd5b60008290508073ffffffffffffffffffffffffffffffffffffffff166370a08231306040518263ffffffff1660e01b8152600401611db4919061229c565b602060405180830381865afa158015611dd1573d6000803e3d6000fd5b505050506040513d601f19601f82011682018060405250810190611df59190612f25565b915050919050565b600080821480611e25575082828385611e169190612c9c565b925082611e239190612fed565b145b611e2e57600080fd5b92915050565b6040518060c00160405280600073ffffffffffffffffffffffffffffffffffffffff16815260200160001515815260200160008152602001600073ffffffffffffffffffffffffffffffffffffffff16815260200160608152602001606081525090565b600082825260208201905092915050565b7f636f6e747261637420646f6573206e6f7420616363657074204574686572206460008201527f69726563746c7900000000000000000000000000000000000000000000000000602082015250565b6000611f05602783611e98565b9150611f1082611ea9565b604082019050919050565b60006020820190508181036000830152611f3481611ef8565b9050919050565b6000604051905090565b600080fd5b600080fd5b600073ffffffffffffffffffffffffffffffffffffffff82169050919050565b6000611f7a82611f4f565b9050919050565b611f8a81611f6f565b8114611f9557600080fd5b50565b600081359050611fa781611f81565b92915050565b6000819050919050565b611fc081611fad565b8114611fcb57600080fd5b50565b600081359050611fdd81611fb7565b92915050565b60008060408385031215611ffa57611ff9611f45565b5b600061200885828601611f98565b925050602061201985828601611fce565b9150509250929050565b600081519050919050565b600082825260208201905092915050565b6000819050602082019050919050565b61205881611f6f565b82525050565b60008115159050919050565b6120738161205e565b82525050565b61208281611fad565b82525050565b600081519050919050565b600082825260208201905092915050565b60005b838110156120c25780820151818401526020810190506120a7565b60008484015250505050565b6000601f19601f8301169050919050565b60006120ea82612088565b6120f48185612093565b93506121048185602086016120a4565b61210d816120ce565b840191505092915050565b600060c083016000830151612130600086018261204f565b506020830151612143602086018261206a565b5060408301516121566040860182612079565b506060830151612169606086018261204f565b506080830151848203608086015261218182826120df565b91505060a083015184820360a086015261219b82826120df565b9150508091505092915050565b60006121b48383612118565b905092915050565b6000602082019050919050565b60006121d482612023565b6121de818561202e565b9350836020820285016121f08561203f565b8060005b8581101561222c578484038952815161220d85826121a8565b9450612218836121bc565b925060208a019950506001810190506121f4565b50829750879550505050505092915050565b6000602082019050818103600083015261225881846121c9565b905092915050565b60006020828403121561227657612275611f45565b5b600061228484828501611fce565b91505092915050565b61229681611f6f565b82525050565b60006020820190506122b1600083018461228d565b92915050565b6000602082840312156122cd576122cc611f45565b5b60006122db84828501611f98565b91505092915050565b600060c0830160008301516122fc600086018261204f565b50602083015161230f602086018261206a565b5060408301516123226040860182612079565b506060830151612335606086018261204f565b506080830151848203608086015261234d82826120df565b91505060a083015184820360a086015261236782826120df565b9150508091505092915050565b6000602082019050818103600083015261238e81846122e4565b905092915050565b600081519050919050565b600082825260208201905092915050565b6000819050602082019050919050565b60006123ce838361204f565b60208301905092915050565b6000602082019050919050565b60006123f282612396565b6123fc81856123a1565b9350612407836123b2565b8060005b8381101561243857815161241f88826123c2565b975061242a836123da565b92505060018101905061240b565b5085935050505092915050565b6000602082019050818103600083015261245f81846123e7565b905092915050565b6124708161205e565b82525050565b61247f81611fad565b82525050565b600061249082612088565b61249a8185611e98565b93506124aa8185602086016120a4565b6124b3816120ce565b840191505092915050565b600060c0820190506124d3600083018961228d565b6124e06020830188612467565b6124ed6040830187612476565b6124fa606083018661228d565b818103608083015261250c8185612485565b905081810360a08301526125208184612485565b9050979650505050505050565b60006020820190506125426000830184612476565b92915050565b600080fd5b600080fd5b7f4e487b7100000000000000000000000000000000000000000000000000000000600052604160045260246000fd5b61258a826120ce565b810181811067ffffffffffffffff821117156125a9576125a8612552565b5b80604052505050565b60006125bc611f3b565b90506125c88282612581565b919050565b600067ffffffffffffffff8211156125e8576125e7612552565b5b6125f1826120ce565b9050602081019050919050565b600061261161260c846125cd565b6125b2565b90508281526020810184848401111561262d5761262c61254d565b5b6126388482856120a4565b509392505050565b600082601f83011261265557612654612548565b5b81516126658482602086016125fe565b91505092915050565b60006020828403121561268457612683611f45565b5b600082015167ffffffffffffffff8111156126a2576126a1611f4a565b5b6126ae84828501612640565b91505092915050565b7f4e487b7100000000000000000000000000000000000000000000000000000000600052602260045260246000fd5b600060028204905060018216806126fe57607f821691505b602082108103612711576127106126b7565b5b50919050565b60008190508160005260206000209050919050565b60006020601f8301049050919050565b600082821b905092915050565b6000600883026127797fffffffffffffffffffffffffffffffffffffffffffffffffffffffffffffffff8261273c565b612783868361273c565b95508019841693508086168417925050509392505050565b6000819050919050565b60006127c06127bb6127b684611fad565b61279b565b611fad565b9050919050565b6000819050919050565b6127da836127a5565b6127ee6127e6826127c7565b848454612749565b825550505050565b600090565b6128036127f6565b61280e8184846127d1565b505050565b5b81811015612832576128276000826127fb565b600181019050612814565b5050565b601f8211156128775761284881612717565b6128518461272c565b81016020851015612860578190505b61287461286c8561272c565b830182612813565b50505b505050565b600082821c905092915050565b600061289a6000198460080261287c565b1980831691505092915050565b60006128b38383612889565b9150826002028217905092915050565b6128cc82612088565b67ffffffffffffffff8111156128e5576128e4612552565b5b6128ef82546126e6565b6128fa828285612836565b600060209050601f83116001811461292d576000841561291b578287015190505b61292585826128a7565b86555061298d565b601f19841661293b86612717565b60005b828110156129635784890151825560018201915060208501945060208101905061293e565b86831015612980578489015161297c601f891682612889565b8355505b6001600288020188555050505b505050505050565b60006060820190506129aa6000830186612476565b81810360208301526129bc8185612485565b905081810360408301526129d08184612485565b9050949350505050565b7f4e487b7100000000000000000000000000000000000000000000000000000000600052603260045260246000fd5b7f4e487b7100000000000000000000000000000000000000000000000000000000600052601160045260246000fd5b6000612a4382611fad565b91507fffffffffffffffffffffffffffffffffffffffffffffffffffffffffffffffff8203612a7557612a74612a09565b5b600182019050919050565b7f546f6b656e206e6f742053757070727465640000000000000000000000000000600082015250565b6000612ab6601283611e98565b9150612ac182612a80565b602082019050919050565b60006020820190508181036000830152612ae581612aa9565b9050919050565b7f416d6f756e74206d757374206265206772656174657220746861742030000000600082015250565b6000612b22601d83611e98565b9150612b2d82612aec565b602082019050919050565b60006020820190508181036000830152612b5181612b15565b9050919050565b7f496e636f727265637420457468657220616d6f756e7400000000000000000000600082015250565b6000612b8e601683611e98565b9150612b9982612b58565b602082019050919050565b60006020820190508181036000830152612bbd81612b81565b9050919050565b600081905092915050565b50565b6000612bdf600083612bc4565b9150612bea82612bcf565b600082019050919050565b6000612c0082612bd2565b9150819050919050565b7f6661696c656420746f207472616e7366657220457468657220746f20746f6b6560008201527f6e2063726561746f720000000000000000000000000000000000000000000000602082015250565b6000612c66602983611e98565b9150612c7182612c0a565b604082019050919050565b60006020820190508181036000830152612c9581612c59565b9050919050565b6000612ca782611fad565b9150612cb283611fad565b9250828202612cc081611fad565b91508282048414831517612cd757612cd6612a09565b5b5092915050565b6000604082019050612cf3600083018561228d565b612d006020830184612476565b9392505050565b612d108161205e565b8114612d1b57600080fd5b50565b600081519050612d2d81612d07565b92915050565b600060208284031215612d4957612d48611f45565b5b6000612d5784828501612d1e565b91505092915050565b7f5472616e73666572206661696c65640000000000000000000000000000000000600082015250565b6000612d96600f83611e98565b9150612da182612d60565b602082019050919050565b60006020820190508181036000830152612dc581612d89565b9050919050565b7f546f6b656e206e6f7420737570706f7274656400000000000000000000000000600082015250565b6000612e02601383611e98565b9150612e0d82612dcc565b602082019050919050565b60006020820190508181036000830152612e3181612df5565b9050919050565b7f63616c6c6572206e6f742063726561746f720000000000000000000000000000600082015250565b6000612e6e601283611e98565b9150612e7982612e38565b602082019050919050565b60006020820190508181036000830152612e9d81612e61565b9050919050565b7f416d6f756e74206d7573742062652067726561746574207468616e2030000000600082015250565b6000612eda601d83611e98565b9150612ee582612ea4565b602082019050919050565b60006020820190508181036000830152612f0981612ecd565b9050919050565b600081519050612f1f81611fb7565b92915050565b600060208284031215612f3b57612f3a611f45565b5b6000612f4984828501612f10565b91505092915050565b7f42616c616e6365206d7573742062652067726561746574207468616e20300000600082015250565b6000612f88601e83611e98565b9150612f9382612f52565b602082019050919050565b60006020820190508181036000830152612fb781612f7b565b9050919050565b7f4e487b7100000000000000000000000000000000000000000000000000000000600052601260045260246000fd5b6000612ff882611fad565b915061300383611fad565b92508261301357613012612fbe565b5b82820490509291505056fea264697066735822122068a82532f0e439d116e95d4d5f3a6e8fc708174c2735d7fbb2cec1bc81746f2464736f6c63430008140033",
  "linkReferences": {},
  "deployedLinkReferences": {}
}